:100AB6003738392F343536583132332D2E303D2BD9
:03000300020AD519
:0D0AD500C0E0053DE53D7002053CD0E0327B
:10045100C2B17590F0E4F5A0C2B07F38120AC67F30
:100461000C120AC67F01120AC67F80120AC67F06D5
:10047100120AC675A881758801120888AC06AD07F5
:10048100E41203228F2C8E2B8D2A8C29E4F518F58A
:1004910017F516F515750C057510AC750FC5750EAC
:1004A10027750D37F514F5137512A0751140F52454
:1004B100F52375228075213FF528F527F526F525C9
:1004C100853C08853D09AF28AE27AD26AC25120332
:1004D1005B8E0A8F0BAC08AD09E4120322A804A9B4
:1004E10005AA06AB07AF2CAE2BAD2AAC2912000929
:1004F1008F288E278D268C25E4FFFE7D7F7C43ABE4
:1005010028AA27A926A8251200FEAB2CAA2BA92AC6
:10051100A829120207AB14AA13A912A8111200FEEE
:100521008F1C8E1B8D1A8C19E4FFFE7D7F7C43ABE3
:100531001CAA1BA91AA8191202A4600F400DE4F508
:100541001CF51B751A7F7519438017E4FFFE7D802A
:100551007C3FAB1CAA1BA91AA8191202A4500302C2
:100561000679AF0C7E00120A71AB18AA17A916A85A
:1005710015C000C001C002C003AF28AE27AD26AC34
:1005810025AB10AA0FA90EA80D1200FEC004C005CC
:10059100C006C007AC0CE4120327D003D002D0017F
:1005A100D0001200FED003D002D001D00012000D05
:1005B1008F188E178D168C15AC0AAD0BE412032221
:1005C100A804A905AA06AB07AF28AE27AD26AC251E
:1005D100120009AB24AA23A922A8211200FEC004FB
:1005E100C005C006C007AC0CE4120327A804A90586
:1005F100AA06AB07D007D006D005D0041202078F98
:10060100208E1F8D1E8C1D7FC0120AC6AF30AE2FEB
:10061100AD2EAC2D12035B12069AAF3DAE3C120615
:100621009AAF18AE17AD16AC15AB1CAA1BA91AA828
:100631001912000DAB20AA1FA91EA81D12000D8FB3
:10064100308E2F8D2E8C2DE4FFFE7D7F7C43AB30D1
:10065100AA2FA92EA82D1202A4600D400BE4F5309B
:10066100F52F752E7F752D43AF30AE2FAD2EAC2DEE
:1006710012035B8FA00204C17FC0120AC6E4F51CFD
:10068100F51BF51AF519AF1CAE1BAD1AAC19120307
:090691005B12069AE4F5A080FE5C
:10088800E4F538F539F5321209AA74332532F8A699
:100898000774332532F8E6FFF531B42D047E018064
:1008A800027E00E531B42B047D0180027D00ED4E0F
:1008B80070D5E531643D600E120A9474332532F820
:1008C80074D026F60532E532640560047F018002A3
:1008D8007F00E531643D60047E0180027E00EE5FAA
:1008E80070A5E53224FE601914602514603E14607A
:1008F80069240460030209A57538008533390209A3
:10090800A5E53375F00AA4AEF07C00253402099FF2
:10091800E53475F00AA4FDACF0E53375F064A42D58
:10092800FFE5F03CFE7C00EF2535806BAF337E00A1
:100938007C037DE81203DCAC06AD07E53475F06492
:10094800A42DFDEC35F0FCE53575F00AA42DFFE586
:10095800F03CFE7C00EF2536803DAF347E007C0302
:100968007DE81203DCAA06AB07AF337E007C277D47
:10097800101203DCEF2BFDEE3AFCE53575F064A4AC
:100988002DFDE5F03CFCE53675F00AA42DFFE5F0F9
:100998003CFE7C00EF2537F539EC3EF538AE38AF34
:0109A8003915
:0109A900222B
:04069A00AB07AA06FA
:10069E007C007D0A1203EE8F828E83AE02AF037C46
:1006AE00007D0A1203EEED2430F532E43CF5317C88
:1006BE00007D0AAF82AE831203EEED2430F534E4F2
:1006CE003CF533AE83AF827C007D0A1203EEAB079E
:1006DE00AA067C007D0A1203EEED2430F536E43CCA
:1006EE00F535AE02AF037C007D0A1203EEAB07AA0E
:1006FE00067C007D0A1203EEED2430F538E43CF55D
:10070E0037AE02AF037C007D0A1203EEEF2430F504
:10071E003AE43EF539E5386430453770047F0180A0
:10072E00027F00E53A6430453970047E0180027E16
:10073E0000EE5FFFE5366430453570047E018002C1
:10074E007E00EE5FFFE5346430453370047E018039
:10075E00027E00EE5F6018AF32120A94E4F53B7F22
:10076E0020120A94053BC3E53B6480948440F0E577
:10077E00386430453770047F0180027F00E53A64AB
:10078E0030453970047E0180027E00EE5FFFE53653
:10079E006430453570047E0180027E00EE5FFFE519
:1007AE00346430453360047E0180027E00EE5F606B
:1007BE0024753B01120A8A153BC3E53B6480948085
:1007CE0050F2E4F53B7F20120A94053BC3E53B64EF
:1007DE0080948340F0E5386430453770047F0180A3
:1007EE00027F00E53A6430453970047E0180027E56
:1007FE0000EE5FFFE5366430453560047E01800211
:10080E007E00EE5F6024753B02120A8A153BC3E53B
:10081E003B6480948050F2E4F53B7F20120A9405ED
:10082E003BC3E53B6480948240F0E53A6430453941
:10083E0070047F0180027F00E53864304537600424
:10084E007E0180027E00EE5F6016753B03120A8AFF
:10085E00153BC3E53B6480948050F27F20120A94CE
:10086E00E53A643045396011753B04120A8A153B2E
:09087E00C3E53B6480948050F254
:01088700224E
:080A6900C2B6D2B77F017E0086
:100A7100EF4E60147D7A7C00ED1D70011CED4C7011
:080A8100F7EF1F70EB1E80E887
:010A8900224A
:100AA300D287C2B5D2B6308709C2B7120A6DD2B7A0
:030AB30080F422AA
:0F0AC600AB07120AA38B80C2B5120A69C2B7220E
:0A0A8A00E53B25E02431F808E6FF03
:0F0A9400AB07120AA38B80D2B5120A69C2B72230
:1009AA007590F0AF905307F0BFF0F57F087E001204
:1009BA000A71AF905307F0EF64F060EF7F087E0092
:1009CA00120A71AF905307F0EF64F060DE5390F0B3
:1009DA0043900EAF905307F0EF64F06004E4FB809D
:1009EA003A5390F043900DAF905307F0EF64F060E4
:1009FA00047B0180265390F043900BAF905307F08D
:100A0A00EF64F060047B0280125390F0439007AFCA
:100A1A00905307F0EF64F060027B03BFE00EEB2512
:100A2A00E025E024B6F582E4340A802DBFD00EEB2F
:100A3A0025E025E024B7F582E4340A801CEBBFB038
:100A4A000D25E025E024B8F582E4340A800B25E080
:0E0A5A0025E024B9F582E4340AF583E493FF25
:010A6800226B
:100006000203C7E86480F8E933E83360110460F05E
:10001600ED33EC337009E8FCE9FDEAFEEBFF220460
:1000260060DED3EB9FEA9EE99DE8C2E78CF0C2F75B
:1000360095F0400CE8CCF8E9CDF9EACEFAEBCFFB27
:1000460012039285D0F05804700320D5B3E80470EB
:10005600075002B2D50203D192D5EC0460F7E4CC86
:10006600C0E0C398F8603B94186008400DD0E0FBF0
:100076000203A9E4FBFAC9FC8028E830E406E4C9D7
:10008600FBE4CAFCE830E305E4C9CACBFCE8540744
:100096006010F8C3E913F9EA13FAEB13FBEC13FC4F
:1000A600D8F130F52FC3E49CFCEF9BFFEE9AFEEDF2
:1000B60099FDD0E0FBEF4E4D4C701222DB0302039C
:1000C600CEEC2CFCEF33FFEE33FEED33FDED30E7E7
:1000D600EB0203A9EF2BFFEE3AFEED39FDD0E0FB74
:1000E60050130BBB00030203D1ED13FDEE13FEEF1D
:0800F60013FFEC13FC0203A947
:1000FE00EC4D6011E8497017ED33EC3304600DE4FC
:10010E00FCFFFEFD22E933E8330470F80203C71248
:10011E00039258046009E4CC248150062850090249
:10012E0003D12840030203CEC0E0EB4A7044B980ED
:10013E0006D0E0FB0203BDEF4E701CBD8008EBFF46
:10014E00EAFEE9FD80EBE98DF0A4FEE5F00201E7A1
:10015E00E9CDF9EAFEEBFFEF89F0A4FCE5F0CE89DC
:10016E00F0A42EFFE435F0CD89F0A42DFEE435F099
:10017E008067EF4E7005BD80D780C3EF8BF0A4ACC7
:10018E00F0EE8BF0A42CFCE435F0F8EF8AF0A42C02
:10019E00E5F038FCE433CB8DF0A42CFCE5F03BF815
:1001AE00EE8AF0A42CFCE5F038F8E433CF89F0A405
:1001BE002CFCE5F038CF3400CE89F0A42FFFE5F00B
:1001CE003EFEE433C98DF0A42EFEE5F039CD8AF063
:1001DE00A42FFFE5F03EFEE43DFD33D0E0FB5007DB
:1001EE000BBB000F0203D1EC2CFCEF33FFEE33FE02
:0601FE00ED33FD0203A930
:100204000203D1EC5D046005E8590470030203C7DE
:10021400120392580460F6EC4860F2EC7004FDFEA0
:10022400FF22C860DB2481C85009C39860025006CD
:100234000203CE9850CAF582E9294B4A7005AB8275
:100244000203BD75F0007C1A7880C3EF9BEE9AED33
:1002540099400DC3EF9BFFEE9AFEED99FDE842F045
:10026400DC23ACF0D0E0FFD0E0FED0E0FDAB822098
:10027400E7101BEB60BAEC2CFCEF33FFEE33FEED22
:1002840033FD0203A9E803F830E705C0F075F00078
:10029400EF2FFFEE33FEED33FD40B830E7C280AA06
:1002A40074F8CC6480CCC86480C8F58204604FC301
:1002B400EB9FF5F0EA9E42F0E99D42F0E89C45F0A0
:1002C400603C501DE5825FFFE582D313CB5BCBF42A
:1002D4002B5582FB50280ABA002409B90020088053
:1002E4001DE5825BFBE582D313CF5FCFF4C3132FED
:1002F4005582FF50090EBE00050DBD00010CC3EB75
:100304009FF5F0EA9E42F0E99D42F0E89C45F060DA
:0903140007CC4820E701B3EC22FC
:10031D0075F020800E75F010800575F0087D007E5B
:10032D00007F003392D530D503120443EC334010D7
:10033D00EF33FFEE33FEED33FDEC33FCD5F0ED2264
:0E034D00E5F0247EA2D513CC92E7CDCEFF22A0
:10035B00EDD2E7CD33EC3392D524814006E4FFFE9A
:10036B00FDFC22FCE4CFCECDCC24E0501174FF80F9
:10037B00EDC3CC13CCCD13CDCE13CECF13CF047096
:07038B00F030D5DE0204434F
:10039200E9D2E7C933E833F892D5EDD2E7CD33ECB1
:0703A20033FC5002B2D5222A
:1003A900EC30E7100FBF000C0EBE00080DBD0004B5
:1003B9000BEB6014A2D5EB13FCED92E7FD2274FF61
:1003C900FCFDFEFF22E480F8A2D574FF13FC7D80BA
:0303D900E480EFCE
:03000000020AE20F
:0C0AE200787FE4F6D8FD75813D020451D8
:1003DC00EF8DF0A4A8F0CF8CF0A428CE8DF0A42E35
:0203EC00FE22EF
:1003EE00BC000BBE0029EF8DF084FFADF022E4CCF3
:1003FE00F875F008EF2FFFEE33FEEC33FCEE9DECBC
:10040E00984005FCEE9DFE0FD5F0E9E4CEFD22ED01
:10041E00F8F5F0EE8420D21CFEADF075F008EF2F4B
:10042E00FFED33FD4007985006D5F0F222C398FD3C
:05043E000FD5F0EA22D9
:0E044300C3E49FFFE49EFEE49DFDE49CFC22CA
:00000001FF
