:0A093600010B0002080000010A0096
:1008CD007590FF12092B1209417F017E001208F964
:1008DD0085900BE50B7006C2B0C2AF80F3E50BB48B
:0C08ED00FF06D2B0C2AF80E8D2AF80E4BA
:1008F900E4FDFCC3ED9FEC9E5015E4FBFA0BBB0035
:0F090900010AEB64724A70F50DBD00010C80E429
:0109180022BC
:0B092B00E4F5807590FFF5A0F5B02208
:100919005389F0438901E4F58CF58AD2A9D2AFD283
:020929008C221E
:06094100E4F50B020919A8
:03000B0002088C5C
:10088C00C0E0C0D075D000C007C28C30B010C2B070
:10089C00C374FF950BF509E49400F508800AD2B0F7
:1008AC00750800850B09E508FFC374FF9FF58CC321
:1008BC0074FF9509F58AC28DD28CD007D0D0D0E0C8
:0108CC0032F9
:03000000020800F3
:0C080000787FE4F6D8FD75810B020847F4
:10080C000208CDE493A3F8E493A34003F68001F22D
:10081C0008DFF48029E493A3F85407240CC8C333ED
:10082C00C4540F4420C8834004F456800146F6DFBC
:10083C00E4800B0102040810204080900936E47E0D
:10084C00019360BCA3FF543F30E509541FFEE493B1
:10085C00A360010ECF54C025E060A840B8E493A378
:10086C00FAE493A3F8E493A3C8C582C8CAC583CAA3
:10087C00F0A3C8C582C8CAC583CADFE9DEE780BE5B
:0109400000B6
:00000001FF
